:100000000C9472000C9493000C9493000C94930045
:100010000C9493000C9493000C9493000C94930014
:100020000C9493000C9493000C9493000C94930004
:100030000C9493000C9493000C9493000C949300F4
:100040000C9493000C9493000C9493000C949300E4
:100050000C9493000C9493000C9493000C949300D4
:100060000C9493000C9493000C9493000C949300C4
:100070000C9493000C9493000C9493000C949300B4
:100080000C9493000C9493000C9493000C949300A4
:100090000C9493000C9493000C9493000C94930094
:1000A0000C9493000C9493000C9493000C94930084
:1000B0000C9493000C9493000C9493000C94930074
:1000C0000C9493000C9493000C9493000C9489016D
:1000D0000C9493000C9493000C9493000C94930054
:1000E0000C94930011241FBECFEFD1E2DEBFCDBF31
:1000F00000E00CBF12E0A0E0B2E0EEEFF3E000E0C1
:100100000BBF02C007900D92A230B107D9F722E0D1
:10011000A2E0B2E001C01D92A035B207E1F70E9453
:10012000D8010C94FD010C94000089EF90E0019738
:10013000F1F700C000004098419880E388B9429AE6
:10014000E1EEF4E03197F1F700C000004298E9EFEA
:10015000F0E03197F1F700C000004098419888B96D
:10016000429AE1EEF4E03197F1F700C000004298C6
:10017000E9EFF0E03197F1F700C0000040984198B6
:1001800088B9429A81EE94E00197F1F700C000002F
:100190004298E9EFF0E03197F1F700C00000409895
:1001A000419880E288B9429A81EE94E00197F1F794
:1001B00000C000004298089598B19F7098B998B116
:1001C000282F207F922B98B940984198429AE1EECF
:1001D000F4E03197F1F700C00000429898B19F70A9
:1001E00098B998B18295807F892B88B940984198B9
:1001F000429A81EE94E00197F1F700C00000429826
:10020000089589EF90E00197F1F700C0000088E2BF
:100210000E94DC0081E00E94DC0086E00E94DC009D
:100220008EE00E94DC0080E80E94DC00089598B116
:100230009F7098B998B1282F207F922B98B9409A37
:100240004198429AE1EEF4E03197F1F700C00000E6
:10025000429898B19F7098B998B18295807F892B08
:1002600088B9409A4198429A81EE94E00197F1F75B
:1002700000C0000042980895CF93DF93EC0188817D
:10028000882331F021960E94170189918111FBCFBB
:10029000DF91CF910895823071F018F4813031F000
:1002A0000895833069F0843081F008958FE7860FD8
:1002B0000E94DC0008958FEB860F0E94DC000895F9
:1002C00083E9860F0E94DC00089583ED860F0E946B
:1002D000DC00089587B1876F87B988B1807888B9C5
:1002E00008953B9A439808950E946A010E94710103
:1002F0000895E1EDF0E010821092D00086E0809346
:10030000D2008FE58093D4001092D50088E98083D5
:1003100008951F920F920FB60F9211240BB60F92F1
:100320002F933F934F935F936F937F938F939F93FD
:10033000AF93BF93EF93FF93E0910202F0E08091BF
:10034000D600EB5FFD4F8083E0910202F0E0EB5FAF
:10035000FD4F808190E08050924081F0E091020258
:10036000F0E0EB5FFD4F608170E087E392E00E9478
:10037000F201809102028F5F80930202FF91EF9160
:10038000BF91AF919F918F917F916F915F914F91AD
:100390003F912F910F900BBE0F900FBE0F901F90AB
:1003A0001895F8940E9474010E9479017894089538
:1003B0000E94D1010E9495000E94010161E070E05D
:1003C00081E090E00E944B0187E392E00E943C01B3
:1003D0002FEF8FEF9CE2215080409040E1F700C06A
:1003E0000000F2CFFB01DC010D900020E9F711972E
:0E03F00001900D920020E1F70895F894FFCFE0
:0203FE002300DA
:00000001FF
